{
  "contractName": "MyContract",
  "abi": [
    {
      "constant": true,
      "inputs": [],
      "name": "customer",
      "outputs": [
        {
          "name": "",
          "type": "address"
        }
      ],
      "payable": false,
      "stateMutability": "view",
      "type": "function",
      "signature": "0x2804b2c0"
    },
    {
      "constant": true,
      "inputs": [],
      "name": "courier",
      "outputs": [
        {
          "name": "",
          "type": "address"
        }
      ],
      "payable": false,
      "stateMutability": "view",
      "type": "function",
      "signature": "0x50a7f7d3"
    },
    {
      "constant": true,
      "inputs": [],
      "name": "owner",
      "outputs": [
        {
          "name": "",
          "type": "address"
        }
      ],
      "payable": false,
      "stateMutability": "view",
      "type": "function",
      "signature": "0x8da5cb5b"
    },
    {
      "inputs": [
        {
          "name": "_customer",
          "type": "address"
        },
        {
          "name": "_courier",
          "type": "address"
        }
      ],
      "payable": false,
      "stateMutability": "nonpayable",
      "type": "constructor",
      "signature": "constructor"
    },
    {
      "anonymous": false,
      "inputs": [
        {
          "indexed": false,
          "name": "customer",
          "type": "address"
        },
        {
          "indexed": false,
          "name": "productName",
          "type": "string"
        },
        {
          "indexed": false,
          "name": "quantity",
          "type": "uint256"
        },
        {
          "indexed": false,
          "name": "orderID",
          "type": "uint256"
        }
      ],
      "name": "orderSent",
      "type": "event",
      "signature": "0x9e6b2033d739730ebb38eed7364b2bcd1961d259f0d8e0e45ae7312a41d90c3e"
    },
    {
      "anonymous": false,
      "inputs": [
        {
          "indexed": false,
          "name": "customer",
          "type": "address"
        },
        {
          "indexed": false,
          "name": "price",
          "type": "uint256"
        },
        {
          "indexed": false,
          "name": "orderID",
          "type": "uint256"
        }
      ],
      "name": "orderPriceSent",
      "type": "event",
      "signature": "0x7981a9df5fd671f7d9b05ab822782dc129a23945dfb61bb12ca8d58fcf732a96"
    },
    {
      "anonymous": false,
      "inputs": [
        {
          "indexed": false,
          "name": "customer",
          "type": "address"
        },
        {
          "indexed": false,
          "name": "price",
          "type": "uint256"
        },
        {
          "indexed": false,
          "name": "orderID",
          "type": "uint256"
        }
      ],
      "name": "shipmentPriceSent",
      "type": "event",
      "signature": "0x4487bec73369717d586fac5ec6d128084af41961e1e3de1c594a2295017065cf"
    },
    {
      "anonymous": false,
      "inputs": [
        {
          "indexed": false,
          "name": "customer",
          "type": "address"
        },
        {
          "indexed": false,
          "name": "priceSent",
          "type": "uint256"
        },
        {
          "indexed": false,
          "name": "when",
          "type": "uint256"
        }
      ],
      "name": "paymentSent",
      "type": "event",
      "signature": "0xe8d300ec6b2d22bb72b92a048bbde38cd7881303370bf2c21628db5eca918942"
    },
    {
      "anonymous": false,
      "inputs": [
        {
          "indexed": false,
          "name": "courier",
          "type": "address"
        },
        {
          "indexed": false,
          "name": "location",
          "type": "string"
        },
        {
          "indexed": false,
          "name": "when",
          "type": "uint256"
        }
      ],
      "name": "deliverySent",
      "type": "event",
      "signature": "0xe4529db4b65c002e3ca360637889a3e45df18e9657aa7f110adead0573b8afd7"
    },
    {
      "constant": false,
      "inputs": [
        {
          "name": "_product",
          "type": "string"
        },
        {
          "name": "_quantity",
          "type": "uint256"
        },
        {
          "name": "_location",
          "type": "string"
        }
      ],
      "name": "sendOrder",
      "outputs": [],
      "payable": false,
      "stateMutability": "nonpayable",
      "type": "function",
      "signature": "0xf78aed9f"
    },
    {
      "constant": false,
      "inputs": [
        {
          "name": "_orderID",
          "type": "uint256"
        },
        {
          "name": "_price",
          "type": "uint256"
        }
      ],
      "name": "sendOrderPrice",
      "outputs": [],
      "payable": false,
      "stateMutability": "nonpayable",
      "type": "function",
      "signature": "0xeda81aeb"
    },
    {
      "constant": false,
      "inputs": [
        {
          "name": "_orderID",
          "type": "uint256"
        },
        {
          "name": "_price",
          "type": "uint256"
        }
      ],
      "name": "sendShipmentPrice",
      "outputs": [],
      "payable": false,
      "stateMutability": "nonpayable",
      "type": "function",
      "signature": "0x8858fd45"
    },
    {
      "constant": false,
      "inputs": [
        {
          "name": "_orderID",
          "type": "uint256"
        }
      ],
      "name": "allowCustomerToPay",
      "outputs": [],
      "payable": false,
      "stateMutability": "nonpayable",
      "type": "function",
      "signature": "0x53012e4e"
    },
    {
      "constant": false,
      "inputs": [
        {
          "name": "_orderID",
          "type": "uint256"
        }
      ],
      "name": "sendPayment",
      "outputs": [],
      "payable": true,
      "stateMutability": "payable",
      "type": "function",
      "signature": "0xc3771eb3"
    },
    {
      "constant": false,
      "inputs": [
        {
          "name": "_orderID",
          "type": "uint256"
        }
      ],
      "name": "orderDelivered",
      "outputs": [],
      "payable": true,
      "stateMutability": "payable",
      "type": "function",
      "signature": "0xe742a182"
    },
    {
      "constant": true,
      "inputs": [
        {
          "name": "_orderID",
          "type": "uint256"
        }
      ],
      "name": "getOrderInfo",
      "outputs": [
        {
          "name": "_customer",
          "type": "address"
        },
        {
          "name": "_product",
          "type": "string"
        },
        {
          "name": "_quantity",
          "type": "uint256"
        },
        {
          "name": "_price",
          "type": "uint256"
        },
        {
          "name": "_isPaid",
          "type": "bool"
        },
        {
          "name": "_canBePaid",
          "type": "bool"
        }
      ],
      "payable": false,
      "stateMutability": "view",
      "type": "function",
      "signature": "0xd311636b"
    },
    {
      "constant": true,
      "inputs": [
        {
          "name": "_orderID",
          "type": "uint256"
        }
      ],
      "name": "getShippmentInfo",
      "outputs": [
        {
          "name": "_courier",
          "type": "address"
        },
        {
          "name": "_location",
          "type": "string"
        },
        {
          "name": "_price",
          "type": "uint256"
        },
        {
          "name": "_dateOfDelivery",
          "type": "uint256"
        }
      ],
      "payable": false,
      "stateMutability": "view",
      "type": "function",
      "signature": "0x122b6d75"
    }
  ],
  "bytecode": "0x608060405234801561001057600080fd5b506040516040806110b18339810180604052604081101561003057600080fd5b50805160209091015160008054600160a060020a0319908116331790915560018054600160a060020a039485169083161790556002805493909216921691909117905561102f806100826000396000f3fe6080604052600436106100ae5763ffffffff7c0100000000000000000000000000000000000000000000000000000000600035041663122b6d7581146100b35780632804b2c01461017c57806350a7f7d3146101ad57806353012e4e146101c25780638858fd45146101ee5780638da5cb5b1461021e578063c3771eb314610233578063d311636b14610250578063e742a18214610322578063eda81aeb1461033f578063f78aed9f1461036f575b600080fd5b3480156100bf57600080fd5b506100dd600480360360208110156100d657600080fd5b50356104b1565b6040518085600160a060020a0316600160a060020a0316815260200180602001848152602001838152602001828103825285818151815260200191508051906020019080838360005b8381101561013e578181015183820152602001610126565b50505050905090810190601f16801561016b5780820380516001836020036101000a031916815260200191505b509550505050505060405180910390f35b34801561018857600080fd5b506101916105a3565b60408051600160a060020a039092168252519081900360200190f35b3480156101b957600080fd5b506101916105b2565b3480156101ce57600080fd5b506101ec600480360360208110156101e557600080fd5b50356105c1565b005b3480156101fa57600080fd5b506101ec6004803603604081101561021157600080fd5b5080359060200135610618565b34801561022a57600080fd5b506101916106b5565b6101ec6004803603602081101561024957600080fd5b50356106c4565b34801561025c57600080fd5b5061027a6004803603602081101561027357600080fd5b50356107cc565b60408051600160a060020a038816815290810185905260608101849052821515608082015281151560a082015260c06020808301828152885192840192909252875160e084019189019080838360005b838110156102e25781810151838201526020016102ca565b50505050905090810190601f16801561030f5780820380516001836020036101000a031916815260200191505b5097505050505050505060405180910390f35b6101ec6004803603602081101561033857600080fd5b50356108de565b34801561034b57600080fd5b506101ec6004803603604081101561036257600080fd5b5080359060200135610a95565b34801561037b57600080fd5b506101ec6004803603606081101561039257600080fd5b8101906020810181356401000000008111156103ad57600080fd5b8201836020820111156103bf57600080fd5b803590602001918460018302840111640100000000831117156103e157600080fd5b91908080601f0160208091040260200160405190810160405280939291908181526020018383808284376000920191909152509295843595909490935060408101925060200135905064010000000081111561043c57600080fd5b82018360208201111561044e57600080fd5b8035906020019184600183028401116401000000008311171561047057600080fd5b91908080601f016020809104026020016040519081016040528093929190818152602001838380828437600092019190915250929550610b32945050505050565b6000818152600360205260408120600c01546060908290819060ff1615156104d857600080fd5b600280546000878152600360209081526040918290206008810154600b8201546007909201805485516101006001831615026000190190911697909704601f8101859004850288018501909552848752600160a060020a0390951695909391929091859183018282801561058d5780601f106105625761010080835404028352916020019161058d565b820191906000526020600020905b81548152906001019060200180831161057057829003601f168201915b5050505050925093509350935093509193509193565b600154600160a060020a031681565b600254600160a060020a031681565b600054600160a060020a031633146105d857600080fd5b6000818152600360205260409020600c015460ff1615156105f857600080fd5b6000908152600360205260409020600501805461ff001916610100179055565b600054600160a060020a0316331461062f57600080fd5b6000828152600360205260409020600c015460ff16151561064f57600080fd5b6000828152600360209081526040918290206008018390556001548251600160a060020a03909116815290810183905280820184905290517f4487bec73369717d586fac5ec6d128084af41961e1e3de1c594a2295017065cf9181900360600190a15050565b600054600160a060020a031681565b600154600160a060020a031633146106db57600080fd5b6000818152600360205260409020600c015460ff1615156106fb57600080fd5b600081815260036020526040902060050154610100900460ff16151561072057600080fd5b6000818152600360208190526040909120600881015491015401341461074557600080fd5b600081815260036020818152604092839020918201546004830155600882015460098301556005909101805462ff00001916620100001790556001548251600160a060020a0390911681523491810191909152428183015290517fe8d300ec6b2d22bb72b92a048bbde38cd7881303370bf2c21628db5eca9189429181900360600190a150565b6000818152600360205260408120600c0154606090829081908190819060ff1615156107f757600080fd5b60018054600089815260036020818152604092839020808601549281015460058201548254865160026101009a8316158b026000190190921691909104601f8101869004860282018601909752868152600160a060020a039097169792969495919462010000820460ff908116959490920490911692909187918301828280156108c25780601f10610897576101008083540402835291602001916108c2565b820191906000526020600020905b8154815290600101906020018083116108a557829003601f168201915b5050505050945095509550955095509550955091939550919395565b600254600160a060020a031633146108f557600080fd5b6000818152600360205260409020600c015460ff16151561091557600080fd5b60008181526003602052604080822042600b82015582546004909101549151600160a060020a039091169282156108fc02929190818181858888f19350505050158015610966573d6000803e3d6000fd5b50600254600082815260036020526040808220600901549051600160a060020a039093169281156108fc0292818181858888f193505050501580156109af573d6000803e3d6000fd5b50600280546000838152600360209081526040918290208251600160a060020a03909416808552429385018490526060928501838152600790920180546000196001821615610100020116969096049285018390527fe4529db4b65c002e3ca360637889a3e45df18e9657aa7f110adead0573b8afd7959094909392909190608083019085908015610a825780601f10610a5757610100808354040283529160200191610a82565b820191906000526020600020905b815481529060010190602001808311610a6557829003601f168201915b505094505050505060405180910390a150565b600054600160a060020a03163314610aac57600080fd5b6000828152600360205260409020600c015460ff161515610acc57600080fd5b6000828152600360208181526040928390209091018390556001548251600160a060020a03909116815290810183905280820184905290517f7981a9df5fd671f7d9b05ab822782dc129a23945dfb61bb12ca8d58fcf732a969181900360600190a15050565b600154600160a060020a03163314610b4957600080fd5b6004805460010190556002546005805473ffffffffffffffffffffffffffffffffffffffff1916600160a060020a039092169190911790558051610b94906006906020840190610ef3565b506001546009805473ffffffffffffffffffffffffffffffffffffffff1916600160a060020a039092169190911790558251610bd790600b906020860190610ef3565b50600c829055600454600d556010805462ffffff19169055600580546011805473ffffffffffffffffffffffffffffffffffffffff1916600160a060020a0390921691909117815560068054610c429160129160026001821615610100026000190190911604610f71565b506002828101548282015560038084015481840155600480850154818501805473ffffffffffffffffffffffffffffffffffffffff1916600160a060020a0390921691909117905560059485015494909301939093556017805460ff19166001908117909155915460009081526020939093526040909220600b805490939192610cdc928492869281161561010002600019011604610f71565b506001828101548282015560028084015481840155600380850154908401556004808501549084015560058085018054918501805460ff191660ff938416151517808255825461ff00199091166101009182900485161515820217808355925462ff0000199093166201000093849004909416151590920292909217909155600680860180549186018054600160a060020a0390931673ffffffffffffffffffffffffffffffffffffffff199093169290921782556007808801805492969395610db89592890194919391821615909202600019011604610f71565b506002828101549082015560038083015490820155600480830154818301805473ffffffffffffffffffffffffffffffffffffffff1916600160a060020a039283161790556005938401549390920192909255600c9384015492909301805460ff909316151560ff199093169290921790915560015490546040805192909316808352928201859052606082018190526080602080840182815288519285019290925287517f9e6b2033d739730ebb38eed7364b2bcd1961d259f0d8e0e45ae7312a41d90c3e95948994899490939192909160a08401919087019080838360005b83811015610eb1578181015183820152602001610e99565b50505050905090810190601f168015610ede5780820380516001836020036101000a031916815260200191505b509550505050505060405180910390a1505050565b828054600181600116156101000203166002900490600052602060002090601f016020900481019282601f10610f3457805160ff1916838001178555610f61565b82800160010185558215610f61579182015b82811115610f61578251825591602001919060010190610f46565b50610f6d929150610fe6565b5090565b828054600181600116156101000203166002900490600052602060002090601f016020900481019282601f10610faa5780548555610f61565b82800160010185558215610f6157600052602060002091601f016020900482015b82811115610f61578254825591600101919060010190610fcb565b61100091905b80821115610f6d5760008155600101610fec565b9056fea165627a7a723058204f9e1e66f084b0f7c74e961bb3433575dbd3b955566a151be10f60078e2f7c2b0029",
  "source": "pragma solidity >=0.4.22 <0.9.0;\r\n\r\ncontract MyContract {\r\n    \r\n    address payable public owner;\r\n    address payable public customer;\r\n    address payable public courier;\r\n\r\n  struct Shipment {\r\n    address courier;\r\n    string location;\r\n    uint price;\r\n    uint payment;\r\n    address customer;\r\n    uint date;\r\n}\r\n\r\n  struct Order {\r\n    string product;\r\n    uint quantity;\r\n    uint id;\r\n    uint price;\r\n    uint payment;\r\n    bool isDelivered;\r\n    bool canPay;\r\n    bool isPaid;\r\n    Shipment shipment;\r\n    bool init;\r\n}\r\n\r\n    event orderSent (address customer, string productName, uint quantity, uint orderID);\r\n    event orderPriceSent (address customer, uint price, uint orderID);\r\n    event shipmentPriceSent (address customer, uint price, uint orderID);\r\n    event paymentSent (address customer, uint priceSent, uint when);\r\n    event deliverySent (address courier, string location, uint when);\r\n\r\n    mapping(uint => Order)  orders;\r\n    uint numOfOrders;\r\n    \r\n    Shipment _shipment;\r\n    Order _order ;\r\n    \r\n    constructor (address payable _customer, address payable _courier)  public{\r\n        owner = msg.sender;\r\n        customer = _customer;\r\n        courier = _courier;\r\n    }\r\n    \r\n    function sendOrder(string memory _product, uint _quantity, string memory _location) public {\r\n        require(customer == msg.sender);\r\n        numOfOrders++;\r\n        _shipment.courier = courier;\r\n        _shipment.location = _location;\r\n        _shipment.customer = customer;\r\n        \r\n        _order.product = _product;\r\n        _order.quantity = _quantity;\r\n        _order.id = numOfOrders;\r\n        _order.isDelivered = false;\r\n        _order.canPay = false;\r\n        _order.isPaid = false;\r\n        _order.shipment = _shipment;\r\n        _order.init = true;\r\n        \r\n        orders[numOfOrders] = _order;\r\n\r\n        emit orderSent(customer, _product, _quantity, numOfOrders);\r\n    }\r\n    \r\n    function sendOrderPrice(uint _orderID, uint _price) public {\r\n        require(owner == msg.sender);\r\n        require(orders[_orderID].init);\r\n        orders[_orderID].price = _price;\r\n\r\n        emit orderPriceSent(customer, _price, _orderID);\r\n    }\r\n    \r\n    function sendShipmentPrice(uint _orderID, uint _price) public {\r\n        require(owner == msg.sender);\r\n        require(orders[_orderID].init);\r\n        orders[_orderID].shipment.price = _price;\r\n\r\n        emit shipmentPriceSent(customer, _price, _orderID);\r\n    }\r\n    \r\n    // owner allows customer to pay when prices are set\r\n    function allowCustomerToPay(uint _orderID) public {\r\n        require(owner == msg.sender);\r\n        require(orders[_orderID].init);\r\n        orders[_orderID].canPay = true;\r\n    }\r\n    \r\n    // customer sends payment\r\n    function sendPayment(uint _orderID) public payable {\r\n        require(customer == msg.sender);\r\n        require(orders[_orderID].init);\r\n        require(orders[_orderID].canPay);\r\n        require(orders[_orderID].price + orders[_orderID].shipment.price == msg.value);\r\n        \r\n        orders[_orderID].payment = orders[_orderID].price;\r\n        orders[_orderID].shipment.payment = orders[_orderID].shipment.price;\r\n        orders[_orderID].isPaid = true;\r\n        \r\n        emit paymentSent(customer, msg.value, now);\r\n    }\r\n    \r\n    // this function is called by courier when order is delivered\r\n    function orderDelivered(uint _orderID) public payable{\r\n        // only courier can call this function\r\n        require(courier == msg.sender);\r\n        require(orders[_orderID].init);\r\n        \r\n        orders[_orderID].shipment.date = now;\r\n        owner.transfer(orders[_orderID].payment);\r\n        courier.transfer(orders[_orderID].shipment.payment);\r\n        \r\n        emit deliverySent(courier, orders[_orderID].shipment.location, now);\r\n    }\r\n    \r\n    function getOrderInfo(uint _orderID) \r\n    view public returns \r\n    (\r\n        address _customer, \r\n        string memory _product, \r\n        uint _quantity, \r\n        uint _price, \r\n        bool _isPaid, \r\n        bool _canBePaid\r\n    )\r\n    {\r\n        require(orders[_orderID].init);\r\n        return(customer, orders[_orderID].product, orders[_orderID].quantity, orders[_orderID].price, orders[_orderID].isPaid, orders[_orderID].canPay);\r\n    }\r\n    \r\n    function getShippmentInfo(uint _orderID) \r\n    view public returns \r\n    (\r\n        address _courier, \r\n        string memory _location, \r\n        uint _price, \r\n        uint _dateOfDelivery\r\n    ) \r\n    {\r\n        require(orders[_orderID].init);\r\n        return(courier, orders[_orderID].shipment.location, orders[_orderID].shipment.price, orders[_orderID].shipment.date);\r\n    }\r\n    \r\n}",
  "sourcePath": "C:/Users/Aretas/Desktop/ethereum/MyContract/contracts/MyContract.sol",
  "compiler": {
    "name": "solc",
    "version": "0.5.0+commit.1d4f565a.Emscripten.clang"
  },
  "schemaVersion": "3.0.1",
  "updatedAt": "2020-12-23T12:58:02.445Z",
  "devdoc": {
    "methods": {}
  },
  "userdoc": {
    "methods": {}
  }
}